{
  "_format": "hh-sol-artifact-1",
  "contractName": "UsdcWrapper",
  "sourceName": "contracts/UsdcWrapper.sol",
  "abi": [
    {
      "inputs": [
        {
          "internalType": "address",
          "name": "usdcToken_",
          "type": "address"
        },
        {
          "internalType": "address",
          "name": "owner_",
          "type": "address"
        },
        {
          "internalType": "address",
          "name": "coinflowContract_",
          "type": "address"
        }
      ],
      "stateMutability": "nonpayable",
      "type": "constructor"
    },
    {
      "anonymous": false,
      "inputs": [
        {
          "indexed": true,
          "internalType": "address",
          "name": "owner",
          "type": "address"
        },
        {
          "indexed": true,
          "internalType": "address",
          "name": "spender",
          "type": "address"
        },
        {
          "indexed": false,
          "internalType": "uint256",
          "name": "value",
          "type": "uint256"
        }
      ],
      "name": "Approval",
      "type": "event"
    },
    {
      "anonymous": false,
      "inputs": [
        {
          "indexed": true,
          "internalType": "address",
          "name": "from",
          "type": "address"
        },
        {
          "indexed": true,
          "internalType": "address",
          "name": "to",
          "type": "address"
        },
        {
          "indexed": false,
          "internalType": "uint256",
          "name": "value",
          "type": "uint256"
        }
      ],
      "name": "Transfer",
      "type": "event"
    },
    {
      "inputs": [
        {
          "internalType": "address",
          "name": "owner",
          "type": "address"
        },
        {
          "internalType": "address",
          "name": "spender",
          "type": "address"
        }
      ],
      "name": "allowance",
      "outputs": [
        {
          "internalType": "uint256",
          "name": "",
          "type": "uint256"
        }
      ],
      "stateMutability": "view",
      "type": "function"
    },
    {
      "inputs": [
        {
          "internalType": "address",
          "name": "spender",
          "type": "address"
        },
        {
          "internalType": "uint256",
          "name": "amount",
          "type": "uint256"
        }
      ],
      "name": "approve",
      "outputs": [
        {
          "internalType": "bool",
          "name": "",
          "type": "bool"
        }
      ],
      "stateMutability": "nonpayable",
      "type": "function"
    },
    {
      "inputs": [
        {
          "internalType": "address",
          "name": "account",
          "type": "address"
        }
      ],
      "name": "balanceOf",
      "outputs": [
        {
          "internalType": "uint256",
          "name": "",
          "type": "uint256"
        }
      ],
      "stateMutability": "view",
      "type": "function"
    },
    {
      "inputs": [
        {
          "internalType": "uint256",
          "name": "_amount",
          "type": "uint256"
        },
        {
          "internalType": "address",
          "name": "usdcReceiver_",
          "type": "address"
        }
      ],
      "name": "burnWusdc",
      "outputs": [],
      "stateMutability": "nonpayable",
      "type": "function"
    },
    {
      "inputs": [
        {
          "internalType": "uint256",
          "name": "_amount",
          "type": "uint256"
        },
        {
          "internalType": "address",
          "name": "usdcReceiver_",
          "type": "address"
        }
      ],
      "name": "burnWusdcModified",
      "outputs": [],
      "stateMutability": "nonpayable",
      "type": "function"
    },
    {
      "inputs": [
        {
          "internalType": "uint256",
          "name": "_amount",
          "type": "uint256"
        }
      ],
      "name": "buyWusdc",
      "outputs": [
        {
          "internalType": "uint256",
          "name": "",
          "type": "uint256"
        }
      ],
      "stateMutability": "nonpayable",
      "type": "function"
    },
    {
      "inputs": [
        {
          "internalType": "uint256",
          "name": "_amount",
          "type": "uint256"
        }
      ],
      "name": "buyWusdcModified",
      "outputs": [
        {
          "internalType": "uint256",
          "name": "",
          "type": "uint256"
        }
      ],
      "stateMutability": "nonpayable",
      "type": "function"
    },
    {
      "inputs": [
        {
          "internalType": "address",
          "name": "_contractAddress",
          "type": "address"
        },
        {
          "internalType": "bytes",
          "name": "_data",
          "type": "bytes"
        }
      ],
      "name": "callOtherContract",
      "outputs": [
        {
          "internalType": "bytes",
          "name": "",
          "type": "bytes"
        }
      ],
      "stateMutability": "nonpayable",
      "type": "function"
    },
    {
      "inputs": [],
      "name": "decimals",
      "outputs": [
        {
          "internalType": "uint8",
          "name": "",
          "type": "uint8"
        }
      ],
      "stateMutability": "view",
      "type": "function"
    },
    {
      "inputs": [
        {
          "internalType": "address",
          "name": "spender",
          "type": "address"
        },
        {
          "internalType": "uint256",
          "name": "subtractedValue",
          "type": "uint256"
        }
      ],
      "name": "decreaseAllowance",
      "outputs": [
        {
          "internalType": "bool",
          "name": "",
          "type": "bool"
        }
      ],
      "stateMutability": "nonpayable",
      "type": "function"
    },
    {
      "inputs": [],
      "name": "getCoinflowContract",
      "outputs": [
        {
          "internalType": "address",
          "name": "",
          "type": "address"
        }
      ],
      "stateMutability": "view",
      "type": "function"
    },
    {
      "inputs": [],
      "name": "getContractMetadata",
      "outputs": [
        {
          "internalType": "address",
          "name": "",
          "type": "address"
        },
        {
          "internalType": "address",
          "name": "",
          "type": "address"
        },
        {
          "internalType": "address",
          "name": "",
          "type": "address"
        },
        {
          "internalType": "uint256",
          "name": "",
          "type": "uint256"
        },
        {
          "internalType": "uint256",
          "name": "",
          "type": "uint256"
        }
      ],
      "stateMutability": "view",
      "type": "function"
    },
    {
      "inputs": [],
      "name": "getContractUsdcBalance",
      "outputs": [
        {
          "internalType": "uint256",
          "name": "",
          "type": "uint256"
        }
      ],
      "stateMutability": "view",
      "type": "function"
    },
    {
      "inputs": [],
      "name": "getOwner",
      "outputs": [
        {
          "internalType": "address",
          "name": "",
          "type": "address"
        }
      ],
      "stateMutability": "view",
      "type": "function"
    },
    {
      "inputs": [],
      "name": "getUsdcToken",
      "outputs": [
        {
          "internalType": "address",
          "name": "",
          "type": "address"
        }
      ],
      "stateMutability": "view",
      "type": "function"
    },
    {
      "inputs": [
        {
          "internalType": "address",
          "name": "spender",
          "type": "address"
        },
        {
          "internalType": "uint256",
          "name": "addedValue",
          "type": "uint256"
        }
      ],
      "name": "increaseAllowance",
      "outputs": [
        {
          "internalType": "bool",
          "name": "",
          "type": "bool"
        }
      ],
      "stateMutability": "nonpayable",
      "type": "function"
    },
    {
      "inputs": [],
      "name": "isZeroUsdc",
      "outputs": [
        {
          "internalType": "bool",
          "name": "",
          "type": "bool"
        }
      ],
      "stateMutability": "nonpayable",
      "type": "function"
    },
    {
      "inputs": [],
      "name": "name",
      "outputs": [
        {
          "internalType": "string",
          "name": "",
          "type": "string"
        }
      ],
      "stateMutability": "view",
      "type": "function"
    },
    {
      "inputs": [],
      "name": "symbol",
      "outputs": [
        {
          "internalType": "string",
          "name": "",
          "type": "string"
        }
      ],
      "stateMutability": "view",
      "type": "function"
    },
    {
      "inputs": [],
      "name": "totalSupply",
      "outputs": [
        {
          "internalType": "uint256",
          "name": "",
          "type": "uint256"
        }
      ],
      "stateMutability": "view",
      "type": "function"
    },
    {
      "inputs": [
        {
          "internalType": "address",
          "name": "to",
          "type": "address"
        },
        {
          "internalType": "uint256",
          "name": "amount",
          "type": "uint256"
        }
      ],
      "name": "transfer",
      "outputs": [
        {
          "internalType": "bool",
          "name": "",
          "type": "bool"
        }
      ],
      "stateMutability": "nonpayable",
      "type": "function"
    },
    {
      "inputs": [
        {
          "internalType": "address",
          "name": "from",
          "type": "address"
        },
        {
          "internalType": "address",
          "name": "to",
          "type": "address"
        },
        {
          "internalType": "uint256",
          "name": "amount",
          "type": "uint256"
        }
      ],
      "name": "transferFrom",
      "outputs": [
        {
          "internalType": "bool",
          "name": "",
          "type": "bool"
        }
      ],
      "stateMutability": "nonpayable",
      "type": "function"
    }
  ],
  "bytecode": "0x60a06040523480156200001157600080fd5b50604051620038bc380380620038bc83398181016040528101906200003791906200036b565b6040518060400160405280600c81526020017f57726170706564205553444300000000000000000000000000000000000000008152506040518060400160405280600581526020017f57555344430000000000000000000000000000000000000000000000000000008152508160039081620000b4919062000641565b508060049081620000c6919062000641565b505050600073ffffffffffffffffffffffffffffffffffffffff168373ffffffffffffffffffffffffffffffffffffffff16036200013b576040517f08c379a00000000000000000000000000000000000000000000000000000000081526004016200013290620007af565b60405180910390fd5b600073ffffffffffffffffffffffffffffffffffffffff168273ffffffffffffffffffffffffffffffffffffffff1603620001ad576040517f08c379a0000000000000000000000000000000000000000000000000000000008152600401620001a49062000847565b60405180910390fd5b600073ffffffffffffffffffffffffffffffffffffffff168173ffffffffffffffffffffffffffffffffffffffff16036200021f576040517f08c379a00000000000000000000000000000000000000000000000000000000081526004016200021690620008df565b60405180910390fd5b8273ffffffffffffffffffffffffffffffffffffffff1660808173ffffffffffffffffffffffffffffffffffffffff168152505081600560006101000a81548173ffffffffffffffffffffffffffffffffffffffff021916908373ffffffffffffffffffffffffffffffffffffffff16021790555080600660006101000a81548173ffffffffffffffffffffffffffffffffffffffff021916908373ffffffffffffffffffffffffffffffffffffffff1602179055506001600860006101000a81548160ff021916908315150217905550600060078190555050505062000901565b600080fd5b600073ffffffffffffffffffffffffffffffffffffffff82169050919050565b6000620003338262000306565b9050919050565b620003458162000326565b81146200035157600080fd5b50565b60008151905062000365816200033a565b92915050565b60008060006060848603121562000387576200038662000301565b5b6000620003978682870162000354565b9350506020620003aa8682870162000354565b9250506040620003bd8682870162000354565b9150509250925092565b600081519050919050565b7f4e487b7100000000000000000000000000000000000000000000000000000000600052604160045260246000fd5b7f4e487b7100000000000000000000000000000000000000000000000000000000600052602260045260246000fd5b600060028204905060018216806200044957607f821691505b6020821081036200045f576200045e62000401565b5b50919050565b60008190508160005260206000209050919050565b60006020601f8301049050919050565b600082821b905092915050565b600060088302620004c97fffffffffffffffffffffffffffffffffffffffffffffffffffffffffffffffff826200048a565b620004d586836200048a565b95508019841693508086168417925050509392505050565b6000819050919050565b6000819050919050565b6000620005226200051c6200051684620004ed565b620004f7565b620004ed565b9050919050565b6000819050919050565b6200053e8362000501565b620005566200054d8262000529565b84845462000497565b825550505050565b600090565b6200056d6200055e565b6200057a81848462000533565b505050565b5b81811015620005a2576200059660008262000563565b60018101905062000580565b5050565b601f821115620005f157620005bb8162000465565b620005c6846200047a565b81016020851015620005d6578190505b620005ee620005e5856200047a565b8301826200057f565b50505b505050565b600082821c905092915050565b60006200061660001984600802620005f6565b1980831691505092915050565b600062000631838362000603565b9150826002028217905092915050565b6200064c82620003c7565b67ffffffffffffffff811115620006685762000667620003d2565b5b62000674825462000430565b62000681828285620005a6565b600060209050601f831160018114620006b95760008415620006a4578287015190505b620006b0858262000623565b86555062000720565b601f198416620006c98662000465565b60005b82811015620006f357848901518255600182019150602085019450602081019050620006cc565b868310156200071357848901516200070f601f89168262000603565b8355505b6001600288020188555050505b505050505050565b600082825260208201905092915050565b7f55736463577261707065723a205553444320746f6b656e20616464726573732060008201527f697320746865207a65726f206164647265737300000000000000000000000000602082015250565b60006200079760338362000728565b9150620007a48262000739565b604082019050919050565b60006020820190508181036000830152620007ca8162000788565b9050919050565b7f55736463577261707065723a206f776e6572206164647265737320697320746860008201527f65207a65726f2061646472657373000000000000000000000000000000000000602082015250565b60006200082f602e8362000728565b91506200083c82620007d1565b604082019050919050565b60006020820190508181036000830152620008628162000820565b9050919050565b7f55736463577261707065723a20636f696e666c6f7720636f6e7472616374206160008201527f64647265737320697320746865207a65726f2061646472657373000000000000602082015250565b6000620008c7603a8362000728565b9150620008d48262000869565b604082019050919050565b60006020820190508181036000830152620008fa81620008b8565b9050919050565b608051612f606200095c60003960008181610581015281816106ff015281816107dd015281816109020152818161096901528181610be601528181610cc701528181610ddf01528181610ec00152610fed0152612f606000f3fe608060405234801561001057600080fd5b50600436106101425760003560e01c806370a08231116100b8578063a9059cbb1161007c578063a9059cbb14610395578063ad781d87146103c5578063aff692ad146103e3578063c36d63d914610413578063c556d27d14610443578063dd62ed3e1461045f57610142565b806370a08231146102d757806372b44b5214610307578063893d20e81461032957806395d89b4114610347578063a457c2d71461036557610142565b80633543e4fb1161010a5780633543e4fb1461020157806339509351146102315780633b44390a146102615780633c0011ab1461027f57806344b2dc851461029b57806357b08e2d146102b957610142565b806306fdde0314610147578063095ea7b31461016557806318160ddd1461019557806323b872dd146101b3578063313ce567146101e3575b600080fd5b61014f61048f565b60405161015c9190611d67565b60405180910390f35b61017f600480360381019061017a9190611e31565b610521565b60405161018c9190611e8c565b60405180910390f35b61019d610544565b6040516101aa9190611eb6565b60405180910390f35b6101cd60048036038101906101c89190611ed1565b61054e565b6040516101da9190611e8c565b60405180910390f35b6101eb61057d565b6040516101f89190611f40565b60405180910390f35b61021b60048036038101906102169190612090565b61061c565b6040516102289190612141565b60405180910390f35b61024b60048036038101906102469190611e31565b6106c4565b6040516102589190611e8c565b60405180910390f35b6102696106fb565b6040516102769190612172565b60405180910390f35b6102996004803603810190610294919061218d565b610723565b005b6102a3610825565b6040516102b09190611eb6565b60405180910390f35b6102c161082f565b6040516102ce9190611e8c565b60405180910390f35b6102f160048036038101906102ec91906121cd565b6108b0565b6040516102fe9190611eb6565b60405180910390f35b61030f6108f8565b6040516103209594939291906121fa565b60405180910390f35b610331610a1a565b60405161033e9190612172565b60405180910390f35b61034f610a44565b60405161035c9190611d67565b60405180910390f35b61037f600480360381019061037a9190611e31565b610ad6565b60405161038c9190611e8c565b60405180910390f35b6103af60048036038101906103aa9190611e31565b610b4d565b6040516103bc9190611e8c565b60405180910390f35b6103cd610b70565b6040516103da9190612172565b60405180910390f35b6103fd60048036038101906103f8919061224d565b610b9a565b60405161040a9190611eb6565b60405180910390f35b61042d6004803603810190610428919061224d565b610d3a565b60405161043a9190611eb6565b60405180910390f35b61045d6004803603810190610458919061218d565b610f33565b005b6104796004803603810190610474919061227a565b611035565b6040516104869190611eb6565b60405180910390f35b60606003805461049e906122e9565b80601f01602080910402602001604051908101604052809291908181526020018280546104ca906122e9565b80156105175780601f106104ec57610100808354040283529160200191610517565b820191906000526020600020905b8154815290600101906020018083116104fa57829003601f168201915b5050505050905090565b60008061052c6110bc565b90506105398185856110c4565b600191505092915050565b6000600254905090565b6000806105596110bc565b905061056685828561128d565b610571858585611319565b60019150509392505050565b60007f000000000000000000000000000000000000000000000000000000000000000073ffffffffffffffffffffffffffffffffffffffff1663313ce5676040518163ffffffff1660e01b8152600401602060405180830381865afa92505050801561060757506040513d601f19601f820116820180604052508101906106049190612346565b60015b6106145760069050610619565b809150505b90565b6060600073ffffffffffffffffffffffffffffffffffffffff168373ffffffffffffffffffffffffffffffffffffffff160361068d576040517f08c379a0000000000000000000000000000000000000000000000000000000008152600401610684906123e5565b60405180910390fd5b60006106b8838573ffffffffffffffffffffffffffffffffffffffff1661158f90919063ffffffff16565b90508091505092915050565b6000806106cf6110bc565b90506106f08185856106e18589611035565b6106eb9190612434565b6110c4565b600191505092915050565b60007f0000000000000000000000000000000000000000000000000000000000000000905090565b60008211610766576040517f08c379a000000000000000000000000000000000000000000000000000000000815260040161075d906124da565b60405180910390fd5b81610770326108b0565b10156107b1576040517f08c379a00000000000000000000000000000000000000000000000000000000081526004016107a89061256c565b60405180910390fd5b6107bb32836115db565b6107d0826007546117a890919063ffffffff16565b60078190555061082181837f000000000000000000000000000000000000000000000000000000000000000073ffffffffffffffffffffffffffffffffffffffff166117be9092919063ffffffff16565b5050565b6000600754905090565b6000600860009054906101000a900460ff16610880576040517f08c379a0000000000000000000000000000000000000000000000000000000008152600401610877906125fe565b60405180910390fd5b6000600860006101000a81548160ff021916908315150217905550600860009054906101000a900460ff16905090565b60008060008373ffffffffffffffffffffffffffffffffffffffff1673ffffffffffffffffffffffffffffffffffffffff168152602001908152602001600020549050919050565b60008060008060007f0000000000000000000000000000000000000000000000000000000000000000600560009054906101000a900473ffffffffffffffffffffffffffffffffffffffff16600660009054906101000a900473ffffffffffffffffffffffffffffffffffffffff167f000000000000000000000000000000000000000000000000000000000000000073ffffffffffffffffffffffffffffffffffffffff166370a08231306040518263ffffffff1660e01b81526004016109c09190612172565b602060405180830381865afa1580156109dd573d6000803e3d6000fd5b505050506040513d601f19601f82011682018060405250810190610a019190612633565b610a09610544565b945094509450945094509091929394565b6000600560009054906101000a900473ffffffffffffffffffffffffffffffffffffffff16905090565b606060048054610a53906122e9565b80601f0160208091040260200160405190810160405280929190818152602001828054610a7f906122e9565b8015610acc5780601f10610aa157610100808354040283529160200191610acc565b820191906000526020600020905b815481529060010190602001808311610aaf57829003601f168201915b5050505050905090565b600080610ae16110bc565b90506000610aef8286611035565b905083811015610b34576040517f08c379a0000000000000000000000000000000000000000000000000000000008152600401610b2b906126d2565b60405180910390fd5b610b4182868684036110c4565b60019250505092915050565b600080610b586110bc565b9050610b65818585611319565b600191505092915050565b6000600660009054906101000a900473ffffffffffffffffffffffffffffffffffffffff16905090565b60008033905060008311610be3576040517f08c379a0000000000000000000000000000000000000000000000000000000008152600401610bda906124da565b60405180910390fd5b827f000000000000000000000000000000000000000000000000000000000000000073ffffffffffffffffffffffffffffffffffffffff166370a08231836040518263ffffffff1660e01b8152600401610c3d9190612172565b602060405180830381865afa158015610c5a573d6000803e3d6000fd5b505050506040513d601f19601f82011682018060405250810190610c7e9190612633565b1015610cbf576040517f08c379a0000000000000000000000000000000000000000000000000000000008152600401610cb690612764565b60405180910390fd5b610d0c8130857f000000000000000000000000000000000000000000000000000000000000000073ffffffffffffffffffffffffffffffffffffffff16611844909392919063ffffffff16565b610d21836007546118cd90919063ffffffff16565b600781905550610d3181846118e3565b82915050919050565b600080339050600660009054906101000a900473ffffffffffffffffffffffffffffffffffffffff1673ffffffffffffffffffffffffffffffffffffffff163373ffffffffffffffffffffffffffffffffffffffff1603610d99573290505b60008311610ddc576040517f08c379a0000000000000000000000000000000000000000000000000000000008152600401610dd3906124da565b60405180910390fd5b827f000000000000000000000000000000000000000000000000000000000000000073ffffffffffffffffffffffffffffffffffffffff166370a08231836040518263ffffffff1660e01b8152600401610e369190612172565b602060405180830381865afa158015610e53573d6000803e3d6000fd5b505050506040513d601f19601f82011682018060405250810190610e779190612633565b1015610eb8576040517f08c379a0000000000000000000000000000000000000000000000000000000008152600401610eaf90612764565b60405180910390fd5b610f058130857f000000000000000000000000000000000000000000000000000000000000000073ffffffffffffffffffffffffffffffffffffffff16611844909392919063ffffffff16565b610f1a836007546118cd90919063ffffffff16565b600781905550610f2a81846118e3565b82915050919050565b60008211610f76576040517f08c379a0000000000000000000000000000000000000000000000000000000008152600401610f6d906124da565b60405180910390fd5b81610f80336108b0565b1015610fc1576040517f08c379a0000000000000000000000000000000000000000000000000000000008152600401610fb89061256c565b60405180910390fd5b610fcb33836115db565b610fe0826007546117a890919063ffffffff16565b60078190555061103181837f000000000000000000000000000000000000000000000000000000000000000073ffffffffffffffffffffffffffffffffffffffff166117be9092919063ffffffff16565b5050565b6000600160008473ffffffffffffffffffffffffffffffffffffffff1673ffffffffffffffffffffffffffffffffffffffff16815260200190815260200160002060008373ffffffffffffffffffffffffffffffffffffffff1673ffffffffffffffffffffffffffffffffffffffff16815260200190815260200160002054905092915050565b600033905090565b600073ffffffffffffffffffffffffffffffffffffffff168373ffffffffffffffffffffffffffffffffffffffff1603611133576040517f08c379a000000000000000000000000000000000000000000000000000000000815260040161112a906127f6565b60405180910390fd5b600073ffffffffffffffffffffffffffffffffffffffff168273ffffffffffffffffffffffffffffffffffffffff16036111a2576040517f08c379a000000000000000000000000000000000000000000000000000000000815260040161119990612888565b60405180910390fd5b80600160008573ffffffffffffffffffffffffffffffffffffffff1673ffffffffffffffffffffffffffffffffffffffff16815260200190815260200160002060008473ffffffffffffffffffffffffffffffffffffffff1673ffffffffffffffffffffffffffffffffffffffff168152602001908152602001600020819055508173ffffffffffffffffffffffffffffffffffffffff168373ffffffffffffffffffffffffffffffffffffffff167f8c5be1e5ebec7d5bd14f71427d1e84f3dd0314c0f7b2291e5b200ac8c7c3b925836040516112809190611eb6565b60405180910390a3505050565b60006112998484611035565b90507fffffffffffffffffffffffffffffffffffffffffffffffffffffffffffffffff81146113135781811015611305576040517f08c379a00000000000000000000000000000000000000000000000000000000081526004016112fc906128f4565b60405180910390fd5b61131284848484036110c4565b5b50505050565b600073ffffffffffffffffffffffffffffffffffffffff168373ffffffffffffffffffffffffffffffffffffffff1603611388576040517f08c379a000000000000000000000000000000000000000000000000000000000815260040161137f90612986565b60405180910390fd5b600073ffffffffffffffffffffffffffffffffffffffff168273ffffffffffffffffffffffffffffffffffffffff16036113f7576040517f08c379a00000000000000000000000000000000000000000000000000000000081526004016113ee90612a18565b60405180910390fd5b611402838383611a39565b60008060008573ffffffffffffffffffffffffffffffffffffffff1673ffffffffffffffffffffffffffffffffffffffff16815260200190815260200160002054905081811015611488576040517f08c379a000000000000000000000000000000000000000000000000000000000815260040161147f90612aaa565b60405180910390fd5b8181036000808673ffffffffffffffffffffffffffffffffffffffff1673ffffffffffffffffffffffffffffffffffffffff16815260200190815260200160002081905550816000808573ffffffffffffffffffffffffffffffffffffffff1673ffffffffffffffffffffffffffffffffffffffff168152602001908152602001600020600082825401925050819055508273ffffffffffffffffffffffffffffffffffffffff168473ffffffffffffffffffffffffffffffffffffffff167fddf252ad1be2c89b69c2b068fc378daa952ba7f163c4a11628f55a4df523b3ef846040516115769190611eb6565b60405180910390a3611589848484611a3e565b50505050565b60606115d3838360006040518060400160405280601e81526020017f416464726573733a206c6f772d6c6576656c2063616c6c206661696c65640000815250611a43565b905092915050565b600073ffffffffffffffffffffffffffffffffffffffff168273ffffffffffffffffffffffffffffffffffffffff160361164a576040517f08c379a000000000000000000000000000000000000000000000000000000000815260040161164190612b3c565b60405180910390fd5b61165682600083611a39565b60008060008473ffffffffffffffffffffffffffffffffffffffff1673ffffffffffffffffffffffffffffffffffffffff168152602001908152602001600020549050818110156116dc576040517f08c379a00000000000000000000000000000000000000000000000000000000081526004016116d390612bce565b60405180910390fd5b8181036000808573ffffffffffffffffffffffffffffffffffffffff1673ffffffffffffffffffffffffffffffffffffffff1681526020019081526020016000208190555081600260008282540392505081905550600073ffffffffffffffffffffffffffffffffffffffff168373ffffffffffffffffffffffffffffffffffffffff167fddf252ad1be2c89b69c2b068fc378daa952ba7f163c4a11628f55a4df523b3ef8460405161178f9190611eb6565b60405180910390a36117a383600084611a3e565b505050565b600081836117b69190612bee565b905092915050565b61183f8363a9059cbb60e01b84846040516024016117dd929190612c22565b604051602081830303815290604052907bffffffffffffffffffffffffffffffffffffffffffffffffffffffff19166020820180517bffffffffffffffffffffffffffffffffffffffffffffffffffffffff8381831617835250505050611b10565b505050565b6118c7846323b872dd60e01b85858560405160240161186593929190612c4b565b604051602081830303815290604052907bffffffffffffffffffffffffffffffffffffffffffffffffffffffff19166020820180517bffffffffffffffffffffffffffffffffffffffffffffffffffffffff8381831617835250505050611b10565b50505050565b600081836118db9190612434565b905092915050565b600073ffffffffffffffffffffffffffffffffffffffff168273ffffffffffffffffffffffffffffffffffffffff1603611952576040517f08c379a000000000000000000000000000000000000000000000000000000000815260040161194990612cce565b60405180910390fd5b61195e60008383611a39565b80600260008282546119709190612434565b92505081905550806000808473ffffffffffffffffffffffffffffffffffffffff1673ffffffffffffffffffffffffffffffffffffffff168152602001908152602001600020600082825401925050819055508173ffffffffffffffffffffffffffffffffffffffff16600073ffffffffffffffffffffffffffffffffffffffff167fddf252ad1be2c89b69c2b068fc378daa952ba7f163c4a11628f55a4df523b3ef83604051611a219190611eb6565b60405180910390a3611a3560008383611a3e565b5050565b505050565b505050565b606082471015611a88576040517f08c379a0000000000000000000000000000000000000000000000000000000008152600401611a7f90612d60565b60405180910390fd5b6000808673ffffffffffffffffffffffffffffffffffffffff168587604051611ab19190612dbc565b60006040518083038185875af1925050503d8060008114611aee576040519150601f19603f3d011682016040523d82523d6000602084013e611af3565b606091505b5091509150611b0487838387611bd7565b92505050949350505050565b6000611b72826040518060400160405280602081526020017f5361666545524332303a206c6f772d6c6576656c2063616c6c206661696c65648152508573ffffffffffffffffffffffffffffffffffffffff16611c4c9092919063ffffffff16565b9050600081511115611bd25780806020019051810190611b929190612dff565b611bd1576040517f08c379a0000000000000000000000000000000000000000000000000000000008152600401611bc890612e9e565b60405180910390fd5b5b505050565b60608315611c39576000835103611c3157611bf185611c64565b611c30576040517f08c379a0000000000000000000000000000000000000000000000000000000008152600401611c2790612f0a565b60405180910390fd5b5b829050611c44565b611c438383611c87565b5b949350505050565b6060611c5b8484600085611a43565b90509392505050565b6000808273ffffffffffffffffffffffffffffffffffffffff163b119050919050565b600082511115611c9a5781518083602001fd5b806040517f08c379a0000000000000000000000000000000000000000000000000000000008152600401611cce9190611d67565b60405180910390fd5b600081519050919050565b600082825260208201905092915050565b60005b83811015611d11578082015181840152602081019050611cf6565b60008484015250505050565b6000601f19601f8301169050919050565b6000611d3982611cd7565b611d438185611ce2565b9350611d53818560208601611cf3565b611d5c81611d1d565b840191505092915050565b60006020820190508181036000830152611d818184611d2e565b905092915050565b6000604051905090565b600080fd5b600080fd5b600073ffffffffffffffffffffffffffffffffffffffff82169050919050565b6000611dc882611d9d565b9050919050565b611dd881611dbd565b8114611de357600080fd5b50565b600081359050611df581611dcf565b92915050565b6000819050919050565b611e0e81611dfb565b8114611e1957600080fd5b50565b600081359050611e2b81611e05565b92915050565b60008060408385031215611e4857611e47611d93565b5b6000611e5685828601611de6565b9250506020611e6785828601611e1c565b9150509250929050565b60008115159050919050565b611e8681611e71565b82525050565b6000602082019050611ea16000830184611e7d565b92915050565b611eb081611dfb565b82525050565b6000602082019050611ecb6000830184611ea7565b92915050565b600080600060608486031215611eea57611ee9611d93565b5b6000611ef886828701611de6565b9350506020611f0986828701611de6565b9250506040611f1a86828701611e1c565b9150509250925092565b600060ff82169050919050565b611f3a81611f24565b82525050565b6000602082019050611f556000830184611f31565b92915050565b600080fd5b600080fd5b7f4e487b7100000000000000000000000000000000000000000000000000000000600052604160045260246000fd5b611f9d82611d1d565b810181811067ffffffffffffffff82111715611fbc57611fbb611f65565b5b80604052505050565b6000611fcf611d89565b9050611fdb8282611f94565b919050565b600067ffffffffffffffff821115611ffb57611ffa611f65565b5b61200482611d1d565b9050602081019050919050565b82818337600083830152505050565b600061203361202e84611fe0565b611fc5565b90508281526020810184848401111561204f5761204e611f60565b5b61205a848285612011565b509392505050565b600082601f83011261207757612076611f5b565b5b8135612087848260208601612020565b91505092915050565b600080604083850312156120a7576120a6611d93565b5b60006120b585828601611de6565b925050602083013567ffffffffffffffff8111156120d6576120d5611d98565b5b6120e285828601612062565b9150509250929050565b600081519050919050565b600082825260208201905092915050565b6000612113826120ec565b61211d81856120f7565b935061212d818560208601611cf3565b61213681611d1d565b840191505092915050565b6000602082019050818103600083015261215b8184612108565b905092915050565b61216c81611dbd565b82525050565b60006020820190506121876000830184612163565b92915050565b600080604083850312156121a4576121a3611d93565b5b60006121b285828601611e1c565b92505060206121c385828601611de6565b9150509250929050565b6000602082840312156121e3576121e2611d93565b5b60006121f184828501611de6565b91505092915050565b600060a08201905061220f6000830188612163565b61221c6020830187612163565b6122296040830186612163565b6122366060830185611ea7565b6122436080830184611ea7565b9695505050505050565b60006020828403121561226357612262611d93565b5b600061227184828501611e1c565b91505092915050565b6000806040838503121561229157612290611d93565b5b600061229f85828601611de6565b92505060206122b085828601611de6565b9150509250929050565b7f4e487b7100000000000000000000000000000000000000000000000000000000600052602260045260246000fd5b6000600282049050600182168061230157607f821691505b602082108103612314576123136122ba565b5b50919050565b61232381611f24565b811461232e57600080fd5b50565b6000815190506123408161231a565b92915050565b60006020828403121561235c5761235b611d93565b5b600061236a84828501612331565b91505092915050565b7f55736463577261707065723a20636f6e7472616374206164647265737320697360008201527f20746865207a65726f2061646472657373000000000000000000000000000000602082015250565b60006123cf603183611ce2565b91506123da82612373565b604082019050919050565b600060208201905081810360008301526123fe816123c2565b9050919050565b7f4e487b7100000000000000000000000000000000000000000000000000000000600052601160045260246000fd5b600061243f82611dfb565b915061244a83611dfb565b925082820190508082111561246257612461612405565b5b92915050565b7f55736463577261707065723a20616d6f756e74206d757374206265206772656160008201527f746572207468616e207a65726f00000000000000000000000000000000000000602082015250565b60006124c4602d83611ce2565b91506124cf82612468565b604082019050919050565b600060208201905081810360008301526124f3816124b7565b9050919050565b7f55736463577261707065723a20696e73756666696369656e742057555344432060008201527f62616c616e636500000000000000000000000000000000000000000000000000602082015250565b6000612556602783611ce2565b9150612561826124fa565b604082019050919050565b6000602082019050818103600083015261258581612549565b9050919050565b7f55736463577261707065723a2066756e6374696f6e2063616e2062652063616c60008201527f6c6564206f6e6c79206f6e636500000000000000000000000000000000000000602082015250565b60006125e8602d83611ce2565b91506125f38261258c565b604082019050919050565b60006020820190508181036000830152612617816125db565b9050919050565b60008151905061262d81611e05565b92915050565b60006020828403121561264957612648611d93565b5b60006126578482850161261e565b91505092915050565b7f45524332303a2064656372656173656420616c6c6f77616e63652062656c6f7760008201527f207a65726f000000000000000000000000000000000000000000000000000000602082015250565b60006126bc602583611ce2565b91506126c782612660565b604082019050919050565b600060208201905081810360008301526126eb816126af565b9050919050565b7f55736463577261707065723a20696e73756666696369656e742055534443206260008201527f616c616e63650000000000000000000000000000000000000000000000000000602082015250565b600061274e602683611ce2565b9150612759826126f2565b604082019050919050565b6000602082019050818103600083015261277d81612741565b9050919050565b7f45524332303a20617070726f76652066726f6d20746865207a65726f2061646460008201527f7265737300000000000000000000000000000000000000000000000000000000602082015250565b60006127e0602483611ce2565b91506127eb82612784565b604082019050919050565b6000602082019050818103600083015261280f816127d3565b9050919050565b7f45524332303a20617070726f766520746f20746865207a65726f20616464726560008201527f7373000000000000000000000000000000000000000000000000000000000000602082015250565b6000612872602283611ce2565b915061287d82612816565b604082019050919050565b600060208201905081810360008301526128a181612865565b9050919050565b7f45524332303a20696e73756666696369656e7420616c6c6f77616e6365000000600082015250565b60006128de601d83611ce2565b91506128e9826128a8565b602082019050919050565b6000602082019050818103600083015261290d816128d1565b9050919050565b7f45524332303a207472616e736665722066726f6d20746865207a65726f20616460008201527f6472657373000000000000000000000000000000000000000000000000000000602082015250565b6000612970602583611ce2565b915061297b82612914565b604082019050919050565b6000602082019050818103600083015261299f81612963565b9050919050565b7f45524332303a207472616e7366657220746f20746865207a65726f206164647260008201527f6573730000000000000000000000000000000000000000000000000000000000602082015250565b6000612a02602383611ce2565b9150612a0d826129a6565b604082019050919050565b60006020820190508181036000830152612a31816129f5565b9050919050565b7f45524332303a207472616e7366657220616d6f756e742065786365656473206260008201527f616c616e63650000000000000000000000000000000000000000000000000000602082015250565b6000612a94602683611ce2565b9150612a9f82612a38565b604082019050919050565b60006020820190508181036000830152612ac381612a87565b9050919050565b7f45524332303a206275726e2066726f6d20746865207a65726f2061646472657360008201527f7300000000000000000000000000000000000000000000000000000000000000602082015250565b6000612b26602183611ce2565b9150612b3182612aca565b604082019050919050565b60006020820190508181036000830152612b5581612b19565b9050919050565b7f45524332303a206275726e20616d6f756e7420657863656564732062616c616e60008201527f6365000000000000000000000000000000000000000000000000000000000000602082015250565b6000612bb8602283611ce2565b9150612bc382612b5c565b604082019050919050565b60006020820190508181036000830152612be781612bab565b9050919050565b6000612bf982611dfb565b9150612c0483611dfb565b9250828203905081811115612c1c57612c1b612405565b5b92915050565b6000604082019050612c376000830185612163565b612c446020830184611ea7565b9392505050565b6000606082019050612c606000830186612163565b612c6d6020830185612163565b612c7a6040830184611ea7565b949350505050565b7f45524332303a206d696e7420746f20746865207a65726f206164647265737300600082015250565b6000612cb8601f83611ce2565b9150612cc382612c82565b602082019050919050565b60006020820190508181036000830152612ce781612cab565b9050919050565b7f416464726573733a20696e73756666696369656e742062616c616e636520666f60008201527f722063616c6c0000000000000000000000000000000000000000000000000000602082015250565b6000612d4a602683611ce2565b9150612d5582612cee565b604082019050919050565b60006020820190508181036000830152612d7981612d3d565b9050919050565b600081905092915050565b6000612d96826120ec565b612da08185612d80565b9350612db0818560208601611cf3565b80840191505092915050565b6000612dc88284612d8b565b915081905092915050565b612ddc81611e71565b8114612de757600080fd5b50565b600081519050612df981612dd3565b92915050565b600060208284031215612e1557612e14611d93565b5b6000612e2384828501612dea565b91505092915050565b7f5361666545524332303a204552433230206f7065726174696f6e20646964206e60008201527f6f74207375636365656400000000000000000000000000000000000000000000602082015250565b6000612e88602a83611ce2565b9150612e9382612e2c565b604082019050919050565b60006020820190508181036000830152612eb781612e7b565b9050919050565b7f416464726573733a2063616c6c20746f206e6f6e2d636f6e7472616374000000600082015250565b6000612ef4601d83611ce2565b9150612eff82612ebe565b602082019050919050565b60006020820190508181036000830152612f2381612ee7565b905091905056fea26469706673582212200c3b43f6d7a5a77162ff9bbee4f916aedaebc54f39573db608ee6aef7331797664736f6c63430008110033",
  "linkReferences": {},
  "deployedLinkReferences": {}
}