{
  "_format": "hh-sol-artifact-1",
  "contractName": "UsdcWrapper",
  "sourceName": "contracts/UsdcWrapper.sol",
  "abi": [
    {
      "anonymous": false,
      "inputs": [
        {
          "indexed": true,
          "internalType": "address",
          "name": "owner",
          "type": "address"
        },
        {
          "indexed": true,
          "internalType": "address",
          "name": "spender",
          "type": "address"
        },
        {
          "indexed": false,
          "internalType": "uint256",
          "name": "value",
          "type": "uint256"
        }
      ],
      "name": "Approval",
      "type": "event"
    },
    {
      "anonymous": false,
      "inputs": [
        {
          "indexed": false,
          "internalType": "uint8",
          "name": "version",
          "type": "uint8"
        }
      ],
      "name": "Initialized",
      "type": "event"
    },
    {
      "anonymous": false,
      "inputs": [
        {
          "indexed": true,
          "internalType": "address",
          "name": "from",
          "type": "address"
        },
        {
          "indexed": true,
          "internalType": "address",
          "name": "to",
          "type": "address"
        },
        {
          "indexed": false,
          "internalType": "uint256",
          "name": "value",
          "type": "uint256"
        }
      ],
      "name": "Transfer",
      "type": "event"
    },
    {
      "inputs": [
        {
          "internalType": "address",
          "name": "owner",
          "type": "address"
        },
        {
          "internalType": "address",
          "name": "spender",
          "type": "address"
        }
      ],
      "name": "allowance",
      "outputs": [
        {
          "internalType": "uint256",
          "name": "",
          "type": "uint256"
        }
      ],
      "stateMutability": "view",
      "type": "function"
    },
    {
      "inputs": [
        {
          "internalType": "address",
          "name": "spender",
          "type": "address"
        },
        {
          "internalType": "uint256",
          "name": "amount",
          "type": "uint256"
        }
      ],
      "name": "approve",
      "outputs": [
        {
          "internalType": "bool",
          "name": "",
          "type": "bool"
        }
      ],
      "stateMutability": "nonpayable",
      "type": "function"
    },
    {
      "inputs": [
        {
          "internalType": "address",
          "name": "account",
          "type": "address"
        }
      ],
      "name": "balanceOf",
      "outputs": [
        {
          "internalType": "uint256",
          "name": "",
          "type": "uint256"
        }
      ],
      "stateMutability": "view",
      "type": "function"
    },
    {
      "inputs": [
        {
          "internalType": "uint256",
          "name": "_amount",
          "type": "uint256"
        },
        {
          "internalType": "address",
          "name": "usdcReceiver_",
          "type": "address"
        }
      ],
      "name": "burnWusdc",
      "outputs": [],
      "stateMutability": "nonpayable",
      "type": "function"
    },
    {
      "inputs": [
        {
          "internalType": "uint256",
          "name": "_amount",
          "type": "uint256"
        },
        {
          "internalType": "address",
          "name": "usdcReceiver_",
          "type": "address"
        }
      ],
      "name": "burnWusdcModified",
      "outputs": [],
      "stateMutability": "nonpayable",
      "type": "function"
    },
    {
      "inputs": [
        {
          "internalType": "uint256",
          "name": "_amount",
          "type": "uint256"
        }
      ],
      "name": "buyWusdc",
      "outputs": [
        {
          "internalType": "uint256",
          "name": "",
          "type": "uint256"
        }
      ],
      "stateMutability": "nonpayable",
      "type": "function"
    },
    {
      "inputs": [
        {
          "internalType": "uint256",
          "name": "_amount",
          "type": "uint256"
        }
      ],
      "name": "buyWusdcModified",
      "outputs": [
        {
          "internalType": "uint256",
          "name": "",
          "type": "uint256"
        }
      ],
      "stateMutability": "nonpayable",
      "type": "function"
    },
    {
      "inputs": [
        {
          "internalType": "uint256",
          "name": "_amount",
          "type": "uint256"
        },
        {
          "internalType": "address",
          "name": "_receiver",
          "type": "address"
        }
      ],
      "name": "buyWusdcWithAaveModifiedReceiver",
      "outputs": [
        {
          "internalType": "uint256",
          "name": "",
          "type": "uint256"
        }
      ],
      "stateMutability": "nonpayable",
      "type": "function"
    },
    {
      "inputs": [
        {
          "internalType": "uint256",
          "name": "_amount",
          "type": "uint256"
        },
        {
          "internalType": "address",
          "name": "_receiver",
          "type": "address"
        }
      ],
      "name": "buyWusdcWithUsdcModifiedReceiver",
      "outputs": [
        {
          "internalType": "uint256",
          "name": "",
          "type": "uint256"
        }
      ],
      "stateMutability": "nonpayable",
      "type": "function"
    },
    {
      "inputs": [
        {
          "internalType": "uint256",
          "name": "_amount",
          "type": "uint256"
        },
        {
          "internalType": "address",
          "name": "_receiver",
          "type": "address"
        }
      ],
      "name": "buyWusdcWithWethModifiedReceiver",
      "outputs": [
        {
          "internalType": "uint256",
          "name": "",
          "type": "uint256"
        }
      ],
      "stateMutability": "nonpayable",
      "type": "function"
    },
    {
      "inputs": [
        {
          "internalType": "address",
          "name": "_contractAddress",
          "type": "address"
        },
        {
          "internalType": "bytes",
          "name": "_data",
          "type": "bytes"
        }
      ],
      "name": "callOtherContract",
      "outputs": [
        {
          "internalType": "bytes",
          "name": "",
          "type": "bytes"
        }
      ],
      "stateMutability": "nonpayable",
      "type": "function"
    },
    {
      "inputs": [],
      "name": "decimals",
      "outputs": [
        {
          "internalType": "uint8",
          "name": "",
          "type": "uint8"
        }
      ],
      "stateMutability": "view",
      "type": "function"
    },
    {
      "inputs": [
        {
          "internalType": "address",
          "name": "spender",
          "type": "address"
        },
        {
          "internalType": "uint256",
          "name": "subtractedValue",
          "type": "uint256"
        }
      ],
      "name": "decreaseAllowance",
      "outputs": [
        {
          "internalType": "bool",
          "name": "",
          "type": "bool"
        }
      ],
      "stateMutability": "nonpayable",
      "type": "function"
    },
    {
      "inputs": [
        {
          "internalType": "uint256",
          "name": "_amount",
          "type": "uint256"
        }
      ],
      "name": "get100xWusdcWithWeth",
      "outputs": [
        {
          "internalType": "uint256",
          "name": "",
          "type": "uint256"
        }
      ],
      "stateMutability": "nonpayable",
      "type": "function"
    },
    {
      "inputs": [
        {
          "internalType": "uint256",
          "name": "_amount",
          "type": "uint256"
        }
      ],
      "name": "get5xWusdcWithAAVE",
      "outputs": [
        {
          "internalType": "uint256",
          "name": "",
          "type": "uint256"
        }
      ],
      "stateMutability": "nonpayable",
      "type": "function"
    },
    {
      "inputs": [],
      "name": "getAaveToken",
      "outputs": [
        {
          "internalType": "address",
          "name": "",
          "type": "address"
        }
      ],
      "stateMutability": "view",
      "type": "function"
    },
    {
      "inputs": [],
      "name": "getCoinflowContract",
      "outputs": [
        {
          "internalType": "address",
          "name": "",
          "type": "address"
        }
      ],
      "stateMutability": "view",
      "type": "function"
    },
    {
      "inputs": [],
      "name": "getContractMetadata",
      "outputs": [
        {
          "internalType": "address",
          "name": "",
          "type": "address"
        },
        {
          "internalType": "address",
          "name": "",
          "type": "address"
        },
        {
          "internalType": "address",
          "name": "",
          "type": "address"
        },
        {
          "internalType": "uint256",
          "name": "",
          "type": "uint256"
        },
        {
          "internalType": "uint256",
          "name": "",
          "type": "uint256"
        }
      ],
      "stateMutability": "view",
      "type": "function"
    },
    {
      "inputs": [],
      "name": "getContractVersion",
      "outputs": [
        {
          "internalType": "uint16",
          "name": "",
          "type": "uint16"
        }
      ],
      "stateMutability": "pure",
      "type": "function"
    },
    {
      "inputs": [],
      "name": "getOwner",
      "outputs": [
        {
          "internalType": "address",
          "name": "",
          "type": "address"
        }
      ],
      "stateMutability": "view",
      "type": "function"
    },
    {
      "inputs": [],
      "name": "getUsdcAddress",
      "outputs": [
        {
          "internalType": "address",
          "name": "",
          "type": "address"
        }
      ],
      "stateMutability": "view",
      "type": "function"
    },
    {
      "inputs": [],
      "name": "getUsdcToken",
      "outputs": [
        {
          "internalType": "address",
          "name": "",
          "type": "address"
        }
      ],
      "stateMutability": "view",
      "type": "function"
    },
    {
      "inputs": [],
      "name": "getVersion",
      "outputs": [
        {
          "internalType": "uint16",
          "name": "",
          "type": "uint16"
        }
      ],
      "stateMutability": "view",
      "type": "function"
    },
    {
      "inputs": [],
      "name": "getWethToken",
      "outputs": [
        {
          "internalType": "address",
          "name": "",
          "type": "address"
        }
      ],
      "stateMutability": "view",
      "type": "function"
    },
    {
      "inputs": [
        {
          "internalType": "address",
          "name": "spender",
          "type": "address"
        },
        {
          "internalType": "uint256",
          "name": "addedValue",
          "type": "uint256"
        }
      ],
      "name": "increaseAllowance",
      "outputs": [
        {
          "internalType": "bool",
          "name": "",
          "type": "bool"
        }
      ],
      "stateMutability": "nonpayable",
      "type": "function"
    },
    {
      "inputs": [
        {
          "internalType": "address",
          "name": "usdcToken_",
          "type": "address"
        },
        {
          "internalType": "address",
          "name": "owner_",
          "type": "address"
        },
        {
          "internalType": "address",
          "name": "coinflowContract_",
          "type": "address"
        },
        {
          "internalType": "address",
          "name": "weth_",
          "type": "address"
        },
        {
          "internalType": "address",
          "name": "aave_",
          "type": "address"
        }
      ],
      "name": "initialize",
      "outputs": [],
      "stateMutability": "nonpayable",
      "type": "function"
    },
    {
      "inputs": [],
      "name": "name",
      "outputs": [
        {
          "internalType": "string",
          "name": "",
          "type": "string"
        }
      ],
      "stateMutability": "view",
      "type": "function"
    },
    {
      "inputs": [
        {
          "internalType": "address",
          "name": "aave_",
          "type": "address"
        }
      ],
      "name": "setAaveToken",
      "outputs": [],
      "stateMutability": "nonpayable",
      "type": "function"
    },
    {
      "inputs": [
        {
          "internalType": "address",
          "name": "coinflow_",
          "type": "address"
        }
      ],
      "name": "setCoinflowContract",
      "outputs": [],
      "stateMutability": "nonpayable",
      "type": "function"
    },
    {
      "inputs": [
        {
          "internalType": "address",
          "name": "owner_",
          "type": "address"
        }
      ],
      "name": "setOwner",
      "outputs": [],
      "stateMutability": "nonpayable",
      "type": "function"
    },
    {
      "inputs": [
        {
          "internalType": "address",
          "name": "usdcToken_",
          "type": "address"
        }
      ],
      "name": "setUsdcAddress",
      "outputs": [],
      "stateMutability": "nonpayable",
      "type": "function"
    },
    {
      "inputs": [
        {
          "internalType": "address",
          "name": "weth_",
          "type": "address"
        }
      ],
      "name": "setWethToken",
      "outputs": [],
      "stateMutability": "nonpayable",
      "type": "function"
    },
    {
      "inputs": [],
      "name": "symbol",
      "outputs": [
        {
          "internalType": "string",
          "name": "",
          "type": "string"
        }
      ],
      "stateMutability": "view",
      "type": "function"
    },
    {
      "inputs": [],
      "name": "totalSupply",
      "outputs": [
        {
          "internalType": "uint256",
          "name": "",
          "type": "uint256"
        }
      ],
      "stateMutability": "view",
      "type": "function"
    },
    {
      "inputs": [
        {
          "internalType": "address",
          "name": "to",
          "type": "address"
        },
        {
          "internalType": "uint256",
          "name": "amount",
          "type": "uint256"
        }
      ],
      "name": "transfer",
      "outputs": [
        {
          "internalType": "bool",
          "name": "",
          "type": "bool"
        }
      ],
      "stateMutability": "nonpayable",
      "type": "function"
    },
    {
      "inputs": [
        {
          "internalType": "address",
          "name": "from",
          "type": "address"
        },
        {
          "internalType": "address",
          "name": "to",
          "type": "address"
        },
        {
          "internalType": "uint256",
          "name": "amount",
          "type": "uint256"
        }
      ],
      "name": "transferFrom",
      "outputs": [
        {
          "internalType": "bool",
          "name": "",
          "type": "bool"
        }
      ],
      "stateMutability": "nonpayable",
      "type": "function"
    }
  ],
  "bytecode": "0x608060405234801561001057600080fd5b50612734806100206000396000f3fe608060405234801561001057600080fd5b506004361061025c5760003560e01c8063893d20e811610145578063b72b7f0f116100bd578063c6fa1cb81161008c578063d949022111610071578063d949022114610541578063dbe0b5b214610368578063dd62ed3e1461055457600080fd5b8063c6fa1cb81461051b578063d38bcdee1461052e57600080fd5b8063b72b7f0f146104cf578063baf3cf4d146104e2578063c36d63d9146104f5578063c556d27d1461050857600080fd5b8063a457c2d711610114578063ad781d87116100f9578063ad781d8714610498578063aff692ad146104a9578063b137e1d7146104bc57600080fd5b8063a457c2d714610472578063a9059cbb1461048557600080fd5b8063893d20e81461043f5780638aa104351461045057806390e3cc381461045757806395d89b411461046a57600080fd5b80633543e4fb116101d85780633fc54564116101a757806370a082311161018c57806370a08231146103c257806372b44b52146103eb57806386e09c081461042c57600080fd5b80633fc54564146103a05780634c252f91146103b157600080fd5b80633543e4fb1461034257806339509351146103555780633b44390a146103685780633c0011ab1461038d57600080fd5b806313af40351161022f57806318160ddd1161021457806318160ddd1461030d57806323b872dd14610315578063313ce5671461032857600080fd5b806313af4035146102e55780631459457a146102fa57600080fd5b806306fdde0314610261578063095ea7b31461027f5780630b9463d9146102a25780630d8e6e2c146102c3575b600080fd5b61026961058d565b604051610276919061222e565b60405180910390f35b61029261028d366004612258565b61061f565b6040519015158152602001610276565b6102b56102b0366004612282565b610639565b604051908152602001610276565b606954600160a01b900461ffff165b60405161ffff9091168152602001610276565b6102f86102f33660046122ae565b610777565b005b6102f86103083660046122c9565b61086c565b6035546102b5565b61029261032336600461232e565b610c23565b610330610c47565b60405160ff9091168152602001610276565b610269610350366004612380565b610cbc565b610292610363366004612258565b610d57565b6065546001600160a01b03165b6040516001600160a01b039091168152602001610276565b6102f861039b366004612282565b610d96565b6069546001600160a01b0316610375565b6068546001600160a01b0316610375565b6102b56103d03660046122ae565b6001600160a01b031660009081526033602052604090205490565b6103f3610e4a565b604080516001600160a01b039687168152948616602086015292909416918301919091526060820152608081019190915260a001610276565b6102f861043a3660046122ae565b610ee2565b6066546001600160a01b0316610375565b60016102d2565b6102b5610465366004612282565b610f6a565b610269611081565b610292610480366004612258565b611090565b610292610493366004612258565b611122565b6067546001600160a01b0316610375565b6102b56104b7366004612442565b611130565b6102b56104ca366004612442565b611244565b6102f86104dd3660046122ae565b611375565b6102f86104f03660046122ae565b6113fd565b6102b5610503366004612442565b611485565b6102f8610516366004612282565b6114bf565b6102b5610529366004612282565b611558565b6102f861053c3660046122ae565b61166d565b6102b561054f366004612442565b6116f5565b6102b561056236600461245b565b6001600160a01b03918216600090815260346020908152604080832093909416825291909152205490565b60606036805461059c90612485565b80601f01602080910402602001604051908101604052809291908181526020018280546105c890612485565b80156106155780601f106105ea57610100808354040283529160200191610615565b820191906000526020600020905b8154815290600101906020018083116105f857829003601f168201915b5050505050905090565b60003361062d818585611821565b60019150505b92915050565b600033836106625760405162461bcd60e51b8152600401610659906124bf565b60405180910390fd5b6069546040516370a0823160e01b81526001600160a01b038381166004830152869216906370a0823190602401602060405180830381865afa1580156106ac573d6000803e3d6000fd5b505050506040513d601f19601f820116820180604052508101906106d0919061251c565b101561072d5760405162461bcd60e51b815260206004820152602660248201527f55736463577261707065723a20696e73756666696369656e7420414156452062604482015265616c616e636560d01b6064820152608401610659565b606954610745906001600160a01b0316823087611946565b600064e8d4a5100061075886606461254b565b6107629190612562565b905061076e84826119e4565b50929392505050565b6066546001600160a01b031633146107dd5760405162461bcd60e51b8152602060048201526024808201527f55736463577261707065723a2063616c6c6572206973206e6f742074686520616044820152633236b4b760e11b6064820152608401610659565b6001600160a01b03811661084a5760405162461bcd60e51b815260206004820152602e60248201527f55736463577261707065723a206f776e6572206164647265737320697320746860448201526d65207a65726f206164647265737360901b6064820152608401610659565b606680546001600160a01b0319166001600160a01b0392909216919091179055565b600054610100900460ff161580801561088c5750600054600160ff909116105b806108a65750303b1580156108a6575060005460ff166001145b6109185760405162461bcd60e51b815260206004820152602e60248201527f496e697469616c697a61626c653a20636f6e747261637420697320616c72656160448201527f647920696e697469616c697a65640000000000000000000000000000000000006064820152608401610659565b6000805460ff19166001179055801561093b576000805461ff0019166101001790555b6001600160a01b0386166109b75760405162461bcd60e51b815260206004820152603360248201527f55736463577261707065723a205553444320746f6b656e20616464726573732060448201527f697320746865207a65726f2061646472657373000000000000000000000000006064820152608401610659565b6001600160a01b038516610a245760405162461bcd60e51b815260206004820152602e60248201527f55736463577261707065723a206f776e6572206164647265737320697320746860448201526d65207a65726f206164647265737360901b6064820152608401610659565b6001600160a01b038416610aa05760405162461bcd60e51b815260206004820152603a60248201527f55736463577261707065723a20636f696e666c6f7720636f6e7472616374206160448201527f64647265737320697320746865207a65726f20616464726573730000000000006064820152608401610659565b610afc6040518060400160405280600c81526020017f577261707065642055534443000000000000000000000000000000000000000081525060405180604001604052806005815260200164575553444360d81b815250611aa5565b606680546001600160a01b0319166001600160a01b03871617905560355415610b675760405162461bcd60e51b815260206004820152601860248201527f546f74616c20737570706c792073686f756c64206265203000000000000000006044820152606401610659565b60698054606580546001600160a01b03808b166001600160a01b0319928316179092556067805489841690831617905560688054888416921691909117905584167fffffffffffffffffffff0000000000000000000000000000000000000000000090911617600160a01b1790558015610c1b576000805461ff0019169055604051600181527f7f26b83ff96e1f2b6a682f133852f6798a09c465da95921460cefb38474024989060200160405180910390a15b505050505050565b600033610c31858285611b1a565b610c3c858585611ba6565b506001949350505050565b6065546040805163313ce56760e01b815290516000926001600160a01b03169163313ce5679160048083019260209291908290030181865afa925050508015610cad575060408051601f3d908101601f19168201909252610caa91810190612584565b60015b610cb75750600690565b919050565b60606001600160a01b038316610d3a5760405162461bcd60e51b815260206004820152603160248201527f55736463577261707065723a20636f6e7472616374206164647265737320697360448201527f20746865207a65726f20616464726573730000000000000000000000000000006064820152608401610659565b6000610d4f6001600160a01b03851684611d51565b949350505050565b3360008181526034602090815260408083206001600160a01b038716845290915281205490919061062d9082908690610d919087906125a7565b611821565b60008211610db65760405162461bcd60e51b8152600401610659906124bf565b32600090815260336020526040902054821115610e255760405162461bcd60e51b815260206004820152602760248201527f55736463577261707065723a20696e73756666696369656e742057555344432060448201526662616c616e636560c81b6064820152608401610659565b610e2f3283611d9c565b606554610e46906001600160a01b03168284611ecd565b5050565b6065546066546067546040516370a0823160e01b815230600482015260009384938493849384936001600160a01b0390811693811692169083906370a0823190602401602060405180830381865afa158015610eaa573d6000803e3d6000fd5b505050506040513d601f19601f82011682018060405250810190610ece919061251c565b603554945094509450945094509091929394565b6066546001600160a01b03163314610f485760405162461bcd60e51b8152602060048201526024808201527f55736463577261707065723a2063616c6c6572206973206e6f742074686520616044820152633236b4b760e11b6064820152608401610659565b606880546001600160a01b0319166001600160a01b0392909216919091179055565b60003383610f8a5760405162461bcd60e51b8152600401610659906124bf565b6068546040516370a0823160e01b81526001600160a01b038381166004830152869216906370a0823190602401602060405180830381865afa158015610fd4573d6000803e3d6000fd5b505050506040513d601f19601f82011682018060405250810190610ff8919061251c565b10156110555760405162461bcd60e51b815260206004820152602660248201527f55736463577261707065723a20696e73756666696369656e7420574554482062604482015265616c616e636560d01b6064820152608401610659565b60685461106d906001600160a01b0316823087611946565b600064e8d4a510006107588661271061254b565b60606037805461059c90612485565b3360008181526034602090815260408083206001600160a01b0387168452909152812054909190838110156111155760405162461bcd60e51b815260206004820152602560248201527f45524332303a2064656372656173656420616c6c6f77616e63652062656c6f77604482015264207a65726f60d81b6064820152608401610659565b610c3c8286868403611821565b60003361062d818585611ba6565b600033826111505760405162461bcd60e51b8152600401610659906124bf565b6065546040516370a0823160e01b81526001600160a01b038381166004830152859216906370a0823190602401602060405180830381865afa15801561119a573d6000803e3d6000fd5b505050506040513d601f19601f820116820180604052508101906111be919061251c565b101561121b5760405162461bcd60e51b815260206004820152602660248201527f55736463577261707065723a20696e73756666696369656e7420555344432062604482015265616c616e636560d01b6064820152608401610659565b606554611233906001600160a01b0316823086611946565b61123d81846119e4565b5090919050565b60675460009033906001600160a01b0316810361125e5750325b6000831161127e5760405162461bcd60e51b8152600401610659906124bf565b6069546040516370a0823160e01b81526001600160a01b038381166004830152859216906370a0823190602401602060405180830381865afa1580156112c8573d6000803e3d6000fd5b505050506040513d601f19601f820116820180604052508101906112ec919061251c565b10156113495760405162461bcd60e51b815260206004820152602660248201527f55736463577261707065723a20696e73756666696369656e7420414156452062604482015265616c616e636560d01b6064820152608401610659565b606954611361906001600160a01b0316823086611946565b61123d8161137085600561254b565b6119e4565b6066546001600160a01b031633146113db5760405162461bcd60e51b8152602060048201526024808201527f55736463577261707065723a2063616c6c6572206973206e6f742074686520616044820152633236b4b760e11b6064820152608401610659565b606780546001600160a01b0319166001600160a01b0392909216919091179055565b6066546001600160a01b031633146114635760405162461bcd60e51b8152602060048201526024808201527f55736463577261707065723a2063616c6c6572206973206e6f742074686520616044820152633236b4b760e11b6064820152608401610659565b606980546001600160a01b0319166001600160a01b0392909216919091179055565b60675460009033906001600160a01b0316810361149f5750325b600083116111505760405162461bcd60e51b8152600401610659906124bf565b600082116114df5760405162461bcd60e51b8152600401610659906124bf565b3360009081526033602052604090205482111561154e5760405162461bcd60e51b815260206004820152602760248201527f55736463577261707065723a20696e73756666696369656e742057555344432060448201526662616c616e636560c81b6064820152608401610659565b610e2f3383611d9c565b600033836115785760405162461bcd60e51b8152600401610659906124bf565b6065546040516370a0823160e01b81526001600160a01b038381166004830152869216906370a0823190602401602060405180830381865afa1580156115c2573d6000803e3d6000fd5b505050506040513d601f19601f820116820180604052508101906115e6919061251c565b10156116435760405162461bcd60e51b815260206004820152602660248201527f55736463577261707065723a20696e73756666696369656e7420555344432062604482015265616c616e636560d01b6064820152608401610659565b60655461165b906001600160a01b0316823087611946565b61166583856119e4565b509192915050565b6066546001600160a01b031633146116d35760405162461bcd60e51b8152602060048201526024808201527f55736463577261707065723a2063616c6c6572206973206e6f742074686520616044820152633236b4b760e11b6064820152608401610659565b606580546001600160a01b0319166001600160a01b0392909216919091179055565b60675460009033906001600160a01b0316810361170f5750325b6000831161172f5760405162461bcd60e51b8152600401610659906124bf565b6068546040516370a0823160e01b81526001600160a01b038381166004830152859216906370a0823190602401602060405180830381865afa158015611779573d6000803e3d6000fd5b505050506040513d601f19601f8201168201806040525081019061179d919061251c565b10156117fa5760405162461bcd60e51b815260206004820152602660248201527f55736463577261707065723a20696e73756666696369656e7420574554482062604482015265616c616e636560d01b6064820152608401610659565b606854611812906001600160a01b0316823086611946565b61123d8161137085606461254b565b6001600160a01b0383166118835760405162461bcd60e51b8152602060048201526024808201527f45524332303a20617070726f76652066726f6d20746865207a65726f206164646044820152637265737360e01b6064820152608401610659565b6001600160a01b0382166118e45760405162461bcd60e51b815260206004820152602260248201527f45524332303a20617070726f766520746f20746865207a65726f206164647265604482015261737360f01b6064820152608401610659565b6001600160a01b0383811660008181526034602090815260408083209487168084529482529182902085905590518481527f8c5be1e5ebec7d5bd14f71427d1e84f3dd0314c0f7b2291e5b200ac8c7c3b92591015b60405180910390a3505050565b6040516001600160a01b03808516602483015283166044820152606481018290526119de9085906323b872dd60e01b906084015b60408051601f198184030181529190526020810180517bffffffffffffffffffffffffffffffffffffffffffffffffffffffff167fffffffff0000000000000000000000000000000000000000000000000000000090931692909217909152611efd565b50505050565b6001600160a01b038216611a3a5760405162461bcd60e51b815260206004820152601f60248201527f45524332303a206d696e7420746f20746865207a65726f2061646472657373006044820152606401610659565b8060356000828254611a4c91906125a7565b90915550506001600160a01b0382166000818152603360209081526040808320805486019055518481527fddf252ad1be2c89b69c2b068fc378daa952ba7f163c4a11628f55a4df523b3ef910160405180910390a35050565b600054610100900460ff16611b105760405162461bcd60e51b815260206004820152602b60248201527f496e697469616c697a61626c653a20636f6e7472616374206973206e6f74206960448201526a6e697469616c697a696e6760a81b6064820152608401610659565b610e468282611fd2565b6001600160a01b0383811660009081526034602090815260408083209386168352929052205460001981146119de5781811015611b995760405162461bcd60e51b815260206004820152601d60248201527f45524332303a20696e73756666696369656e7420616c6c6f77616e63650000006044820152606401610659565b6119de8484848403611821565b6001600160a01b038316611c0a5760405162461bcd60e51b815260206004820152602560248201527f45524332303a207472616e736665722066726f6d20746865207a65726f206164604482015264647265737360d81b6064820152608401610659565b6001600160a01b038216611c6c5760405162461bcd60e51b815260206004820152602360248201527f45524332303a207472616e7366657220746f20746865207a65726f206164647260448201526265737360e81b6064820152608401610659565b6001600160a01b03831660009081526033602052604090205481811015611ce45760405162461bcd60e51b815260206004820152602660248201527f45524332303a207472616e7366657220616d6f756e7420657863656564732062604482015265616c616e636560d01b6064820152608401610659565b6001600160a01b0380851660008181526033602052604080822086860390559286168082529083902080548601905591517fddf252ad1be2c89b69c2b068fc378daa952ba7f163c4a11628f55a4df523b3ef90611d449086815260200190565b60405180910390a36119de565b6060611d95838360006040518060400160405280601e81526020017f416464726573733a206c6f772d6c6576656c2063616c6c206661696c65640000815250612056565b9392505050565b6001600160a01b038216611dfc5760405162461bcd60e51b815260206004820152602160248201527f45524332303a206275726e2066726f6d20746865207a65726f206164647265736044820152607360f81b6064820152608401610659565b6001600160a01b03821660009081526033602052604090205481811015611e705760405162461bcd60e51b815260206004820152602260248201527f45524332303a206275726e20616d6f756e7420657863656564732062616c616e604482015261636560f01b6064820152608401610659565b6001600160a01b03831660008181526033602090815260408083208686039055603580548790039055518581529192917fddf252ad1be2c89b69c2b068fc378daa952ba7f163c4a11628f55a4df523b3ef9101611939565b505050565b6040516001600160a01b038316602482015260448101829052611ec890849063a9059cbb60e01b9060640161197a565b6000611f52826040518060400160405280602081526020017f5361666545524332303a206c6f772d6c6576656c2063616c6c206661696c6564815250856001600160a01b03166121319092919063ffffffff16565b9050805160001480611f73575080806020019051810190611f7391906125ba565b611ec85760405162461bcd60e51b815260206004820152602a60248201527f5361666545524332303a204552433230206f7065726174696f6e20646964206e6044820152691bdd081cdd58d8d9595960b21b6064820152608401610659565b600054610100900460ff1661203d5760405162461bcd60e51b815260206004820152602b60248201527f496e697469616c697a61626c653a20636f6e7472616374206973206e6f74206960448201526a6e697469616c697a696e6760a81b6064820152608401610659565b60366120498382612622565b506037611ec88282612622565b6060824710156120b75760405162461bcd60e51b815260206004820152602660248201527f416464726573733a20696e73756666696369656e742062616c616e636520666f6044820152651c8818d85b1b60d21b6064820152608401610659565b600080866001600160a01b031685876040516120d391906126e2565b60006040518083038185875af1925050503d8060008114612110576040519150601f19603f3d011682016040523d82523d6000602084013e612115565b606091505b509150915061212687838387612140565b979650505050505050565b6060610d4f8484600085612056565b606083156121af5782516000036121a8576001600160a01b0385163b6121a85760405162461bcd60e51b815260206004820152601d60248201527f416464726573733a2063616c6c20746f206e6f6e2d636f6e74726163740000006044820152606401610659565b5081610d4f565b610d4f83838151156121c45781518083602001fd5b8060405162461bcd60e51b8152600401610659919061222e565b60005b838110156121f95781810151838201526020016121e1565b50506000910152565b6000815180845261221a8160208601602086016121de565b601f01601f19169290920160200192915050565b602081526000611d956020830184612202565b80356001600160a01b0381168114610cb757600080fd5b6000806040838503121561226b57600080fd5b61227483612241565b946020939093013593505050565b6000806040838503121561229557600080fd5b823591506122a560208401612241565b90509250929050565b6000602082840312156122c057600080fd5b611d9582612241565b600080600080600060a086880312156122e157600080fd5b6122ea86612241565b94506122f860208701612241565b935061230660408701612241565b925061231460608701612241565b915061232260808701612241565b90509295509295909350565b60008060006060848603121561234357600080fd5b61234c84612241565b925061235a60208501612241565b9150604084013590509250925092565b634e487b7160e01b600052604160045260246000fd5b6000806040838503121561239357600080fd5b61239c83612241565b9150602083013567ffffffffffffffff808211156123b957600080fd5b818501915085601f8301126123cd57600080fd5b8135818111156123df576123df61236a565b604051601f8201601f19908116603f011681019083821181831017156124075761240761236a565b8160405282815288602084870101111561242057600080fd5b8260208601602083013760006020848301015280955050505050509250929050565b60006020828403121561245457600080fd5b5035919050565b6000806040838503121561246e57600080fd5b61247783612241565b91506122a560208401612241565b600181811c9082168061249957607f821691505b6020821081036124b957634e487b7160e01b600052602260045260246000fd5b50919050565b6020808252602d908201527f55736463577261707065723a20616d6f756e74206d757374206265206772656160408201527f746572207468616e207a65726f00000000000000000000000000000000000000606082015260800190565b60006020828403121561252e57600080fd5b5051919050565b634e487b7160e01b600052601160045260246000fd5b808202811582820484141761063357610633612535565b60008261257f57634e487b7160e01b600052601260045260246000fd5b500490565b60006020828403121561259657600080fd5b815160ff81168114611d9557600080fd5b8082018082111561063357610633612535565b6000602082840312156125cc57600080fd5b81518015158114611d9557600080fd5b601f821115611ec857600081815260208120601f850160051c810160208610156126035750805b601f850160051c820191505b81811015610c1b5782815560010161260f565b815167ffffffffffffffff81111561263c5761263c61236a565b6126508161264a8454612485565b846125dc565b602080601f831160018114612685576000841561266d5750858301515b600019600386901b1c1916600185901b178555610c1b565b600085815260208120601f198616915b828110156126b457888601518255948401946001909101908401612695565b50858210156126d25787850151600019600388901b60f8161c191681555b5050505050600190811b01905550565b600082516126f48184602087016121de565b919091019291505056fea2646970667358221220bc90f61e13aa0d9452af1ac780c1de06acb2ee5a4a0eedd0b1dd3bd1061d424464736f6c63430008110033",
  "linkReferences": {},
  "deployedLinkReferences": {}
}